{
  "contractName": "GCWPreSale",
  "abi": [
    {
      "constant": true,
      "inputs": [],
      "name": "hasClosed",
      "outputs": [
        {
          "name": "",
          "type": "bool"
        }
      ],
      "payable": false,
      "stateMutability": "view",
      "type": "function",
      "signature": "0x1515bc2b"
    },
    {
      "constant": true,
      "inputs": [],
      "name": "rate",
      "outputs": [
        {
          "name": "",
          "type": "uint256"
        }
      ],
      "payable": false,
      "stateMutability": "view",
      "type": "function",
      "signature": "0x2c4e722e"
    },
    {
      "constant": true,
      "inputs": [],
      "name": "cap",
      "outputs": [
        {
          "name": "",
          "type": "uint256"
        }
      ],
      "payable": false,
      "stateMutability": "view",
      "type": "function",
      "signature": "0x355274ea"
    },
    {
      "constant": false,
      "inputs": [],
      "name": "unpause",
      "outputs": [],
      "payable": false,
      "stateMutability": "nonpayable",
      "type": "function",
      "signature": "0x3f4ba83a"
    },
    {
      "constant": true,
      "inputs": [],
      "name": "weiRaised",
      "outputs": [
        {
          "name": "",
          "type": "uint256"
        }
      ],
      "payable": false,
      "stateMutability": "view",
      "type": "function",
      "signature": "0x4042b66f"
    },
    {
      "constant": true,
      "inputs": [
        {
          "name": "account",
          "type": "address"
        }
      ],
      "name": "isPauser",
      "outputs": [
        {
          "name": "",
          "type": "bool"
        }
      ],
      "payable": false,
      "stateMutability": "view",
      "type": "function",
      "signature": "0x46fbf68e"
    },
    {
      "constant": true,
      "inputs": [],
      "name": "isOpen",
      "outputs": [
        {
          "name": "",
          "type": "bool"
        }
      ],
      "payable": false,
      "stateMutability": "view",
      "type": "function",
      "signature": "0x47535d7b"
    },
    {
      "constant": true,
      "inputs": [],
      "name": "closingTime",
      "outputs": [
        {
          "name": "",
          "type": "uint256"
        }
      ],
      "payable": false,
      "stateMutability": "view",
      "type": "function",
      "signature": "0x4b6753bc"
    },
    {
      "constant": false,
      "inputs": [],
      "name": "finalize",
      "outputs": [],
      "payable": false,
      "stateMutability": "nonpayable",
      "type": "function",
      "signature": "0x4bb278f3"
    },
    {
      "constant": true,
      "inputs": [],
      "name": "capReached",
      "outputs": [
        {
          "name": "",
          "type": "bool"
        }
      ],
      "payable": false,
      "stateMutability": "view",
      "type": "function",
      "signature": "0x4f935945"
    },
    {
      "constant": true,
      "inputs": [],
      "name": "wallet",
      "outputs": [
        {
          "name": "",
          "type": "address"
        }
      ],
      "payable": false,
      "stateMutability": "view",
      "type": "function",
      "signature": "0x521eb273"
    },
    {
      "constant": true,
      "inputs": [],
      "name": "paused",
      "outputs": [
        {
          "name": "",
          "type": "bool"
        }
      ],
      "payable": false,
      "stateMutability": "view",
      "type": "function",
      "signature": "0x5c975abb"
    },
    {
      "constant": false,
      "inputs": [],
      "name": "renouncePauser",
      "outputs": [],
      "payable": false,
      "stateMutability": "nonpayable",
      "type": "function",
      "signature": "0x6ef8d66d"
    },
    {
      "constant": false,
      "inputs": [],
      "name": "renounceOwnership",
      "outputs": [],
      "payable": false,
      "stateMutability": "nonpayable",
      "type": "function",
      "signature": "0x715018a6"
    },
    {
      "constant": false,
      "inputs": [
        {
          "name": "account",
          "type": "address"
        }
      ],
      "name": "addPauser",
      "outputs": [],
      "payable": false,
      "stateMutability": "nonpayable",
      "type": "function",
      "signature": "0x82dc1ec4"
    },
    {
      "constant": false,
      "inputs": [],
      "name": "pause",
      "outputs": [],
      "payable": false,
      "stateMutability": "nonpayable",
      "type": "function",
      "signature": "0x8456cb59"
    },
    {
      "constant": true,
      "inputs": [],
      "name": "owner",
      "outputs": [
        {
          "name": "",
          "type": "address"
        }
      ],
      "payable": false,
      "stateMutability": "view",
      "type": "function",
      "signature": "0x8da5cb5b"
    },
    {
      "constant": true,
      "inputs": [],
      "name": "isOwner",
      "outputs": [
        {
          "name": "",
          "type": "bool"
        }
      ],
      "payable": false,
      "stateMutability": "view",
      "type": "function",
      "signature": "0x8f32d59b"
    },
    {
      "constant": true,
      "inputs": [],
      "name": "finalized",
      "outputs": [
        {
          "name": "",
          "type": "bool"
        }
      ],
      "payable": false,
      "stateMutability": "view",
      "type": "function",
      "signature": "0xb3f05b97"
    },
    {
      "constant": true,
      "inputs": [],
      "name": "openingTime",
      "outputs": [
        {
          "name": "",
          "type": "uint256"
        }
      ],
      "payable": false,
      "stateMutability": "view",
      "type": "function",
      "signature": "0xb7a8807c"
    },
    {
      "constant": false,
      "inputs": [
        {
          "name": "beneficiary",
          "type": "address"
        }
      ],
      "name": "buyTokens",
      "outputs": [],
      "payable": true,
      "stateMutability": "payable",
      "type": "function",
      "signature": "0xec8ac4d8"
    },
    {
      "constant": false,
      "inputs": [
        {
          "name": "newOwner",
          "type": "address"
        }
      ],
      "name": "transferOwnership",
      "outputs": [],
      "payable": false,
      "stateMutability": "nonpayable",
      "type": "function",
      "signature": "0xf2fde38b"
    },
    {
      "constant": true,
      "inputs": [],
      "name": "token",
      "outputs": [
        {
          "name": "",
          "type": "address"
        }
      ],
      "payable": false,
      "stateMutability": "view",
      "type": "function",
      "signature": "0xfc0c546a"
    },
    {
      "inputs": [
        {
          "name": "openingTime",
          "type": "uint256"
        },
        {
          "name": "closingTime",
          "type": "uint256"
        },
        {
          "name": "saleWallet",
          "type": "address"
        },
        {
          "name": "rewardPoolWallet",
          "type": "address"
        },
        {
          "name": "gcwtoken",
          "type": "address"
        }
      ],
      "payable": false,
      "stateMutability": "nonpayable",
      "type": "constructor",
      "signature": "constructor"
    },
    {
      "payable": true,
      "stateMutability": "payable",
      "type": "fallback"
    },
    {
      "anonymous": false,
      "inputs": [
        {
          "indexed": false,
          "name": "account",
          "type": "address"
        }
      ],
      "name": "Paused",
      "type": "event",
      "signature": "0x62e78cea01bee320cd4e420270b5ea74000d11b0c9f74754ebdbfc544b05a258"
    },
    {
      "anonymous": false,
      "inputs": [
        {
          "indexed": false,
          "name": "account",
          "type": "address"
        }
      ],
      "name": "Unpaused",
      "type": "event",
      "signature": "0x5db9ee0a495bf2e6ff9c91a7834c1ba4fdd244a5e8aa4e537bd38aeae4b073aa"
    },
    {
      "anonymous": false,
      "inputs": [
        {
          "indexed": true,
          "name": "account",
          "type": "address"
        }
      ],
      "name": "PauserAdded",
      "type": "event",
      "signature": "0x6719d08c1888103bea251a4ed56406bd0c3e69723c8a1686e017e7bbe159b6f8"
    },
    {
      "anonymous": false,
      "inputs": [
        {
          "indexed": true,
          "name": "account",
          "type": "address"
        }
      ],
      "name": "PauserRemoved",
      "type": "event",
      "signature": "0xcd265ebaf09df2871cc7bd4133404a235ba12eff2041bb89d9c714a2621c7c7e"
    },
    {
      "anonymous": false,
      "inputs": [],
      "name": "CrowdsaleFinalized",
      "type": "event",
      "signature": "0x9270cc390c096600a1c17c44345a1ba689fafd99d97487b10cfccf86cf731836"
    },
    {
      "anonymous": false,
      "inputs": [
        {
          "indexed": true,
          "name": "purchaser",
          "type": "address"
        },
        {
          "indexed": true,
          "name": "beneficiary",
          "type": "address"
        },
        {
          "indexed": false,
          "name": "value",
          "type": "uint256"
        },
        {
          "indexed": false,
          "name": "amount",
          "type": "uint256"
        }
      ],
      "name": "TokensPurchased",
      "type": "event",
      "signature": "0x6faf93231a456e552dbc9961f58d9713ee4f2e69d15f1975b050ef0911053a7b"
    },
    {
      "anonymous": false,
      "inputs": [
        {
          "indexed": true,
          "name": "previousOwner",
          "type": "address"
        },
        {
          "indexed": true,
          "name": "newOwner",
          "type": "address"
        }
      ],
      "name": "OwnershipTransferred",
      "type": "event",
      "signature": "0x8be0079c531659141344cd1fd0a4f28419497f9722a3daafe3b4186f6b6457e0"
    },
    {
      "constant": false,
      "inputs": [
        {
          "name": "closingTime",
          "type": "uint256"
        }
      ],
      "name": "changeClosingTime",
      "outputs": [],
      "payable": false,
      "stateMutability": "nonpayable",
      "type": "function",
      "signature": "0x929c52a7"
    },
    {
      "constant": false,
      "inputs": [
        {
          "name": "from_referrer",
          "type": "address"
        },
        {
          "name": "to_referee",
          "type": "address"
        }
      ],
      "name": "addReferee",
      "outputs": [],
      "payable": false,
      "stateMutability": "nonpayable",
      "type": "function",
      "signature": "0xce90a2cb"
    },
    {
      "constant": false,
      "inputs": [],
      "name": "enableReferral",
      "outputs": [],
      "payable": false,
      "stateMutability": "nonpayable",
      "type": "function",
      "signature": "0x4503a6d3"
    },
    {
      "constant": false,
      "inputs": [],
      "name": "disableReferral",
      "outputs": [],
      "payable": false,
      "stateMutability": "nonpayable",
      "type": "function",
      "signature": "0x7d06b7fd"
    }
  ],
  "bytecode": "0x60806040523480156200001157600080fd5b5060405160a080620021e3833981018060405260a08110156200003357600080fd5b8101908080519060200190929190805190602001909291908051906020019092919080519060200190929190805190602001909291905050508484692c781f708c509f400000600a8685336000806101000a81548173ffffffffffffffffffffffffffffffffffffffff021916908373ffffffffffffffffffffffffffffffffffffffff1602179055506000809054906101000a900473ffffffffffffffffffffffffffffffffffffffff1673ffffffffffffffffffffffffffffffffffffffff16600073ffffffffffffffffffffffffffffffffffffffff167f8be0079c531659141344cd1fd0a4f28419497f9722a3daafe3b4186f6b6457e060405160405180910390a3600180819055506000831115156200015057600080fd5b600073ffffffffffffffffffffffffffffffffffffffff168273ffffffffffffffffffffffffffffffffffffffff16141515156200018d57600080fd5b600073ffffffffffffffffffffffffffffffffffffffff168173ffffffffffffffffffffffffffffffffffffffff1614151515620001ca57600080fd5b8260048190555081600360006101000a81548173ffffffffffffffffffffffffffffffffffffffff021916908373ffffffffffffffffffffffffffffffffffffffff16021790555080600260006101000a81548173ffffffffffffffffffffffffffffffffffffffff021916908373ffffffffffffffffffffffffffffffffffffffff1602179055505050506000811115156200026657600080fd5b80600681905550504282101515156200027e57600080fd5b81811115156200028d57600080fd5b816007819055508060088190555050506000600960006101000a81548160ff021916908315150217905550620002d23362000354640100000000026401000000009004565b6000600b60006101000a81548160ff02191690831515021790555081600b60026101000a81548173ffffffffffffffffffffffffffffffffffffffff021916908373ffffffffffffffffffffffffffffffffffffffff1602179055506001600b60016101000a81548160ff021916908315150217905550505050505062000516565b6200037881600a620003be6401000000000262001a6b179091906401000000009004565b8073ffffffffffffffffffffffffffffffffffffffff167f6719d08c1888103bea251a4ed56406bd0c3e69723c8a1686e017e7bbe159b6f860405160405180910390a250565b600073ffffffffffffffffffffffffffffffffffffffff168173ffffffffffffffffffffffffffffffffffffffff1614151515620003fb57600080fd5b62000416828262000481640100000000026401000000009004565b1515156200042357600080fd5b60018260000160008373ffffffffffffffffffffffffffffffffffffffff1673ffffffffffffffffffffffffffffffffffffffff16815260200190815260200160002060006101000a81548160ff0219169083151502179055505050565b60008073ffffffffffffffffffffffffffffffffffffffff168273ffffffffffffffffffffffffffffffffffffffff1614151515620004bf57600080fd5b8260000160008373ffffffffffffffffffffffffffffffffffffffff1673ffffffffffffffffffffffffffffffffffffffff16815260200190815260200160002060009054906101000a900460ff16905092915050565b611cbd80620005266000396000f3fe60806040526004361061015f576000357c0100000000000000000000000000000000000000000000000000000000900463ffffffff1680631515bc2b1461016a5780632c4e722e14610199578063355274ea146101c45780633f4ba83a146101ef5780634042b66f146102065780634503a6d31461023157806346fbf68e1461024857806347535d7b146102b15780634b6753bc146102e05780634bb278f31461030b5780634f93594514610322578063521eb273146103515780635c975abb146103a85780636ef8d66d146103d7578063715018a6146103ee5780637d06b7fd1461040557806382dc1ec41461041c5780638456cb591461046d5780638da5cb5b146104845780638f32d59b146104db578063929c52a71461050a578063b3f05b9714610545578063b7a8807c14610574578063ce90a2cb1461059f578063ec8ac4d814610610578063f2fde38b14610654578063fc0c546a146106a5575b610168336106fc565b005b34801561017657600080fd5b5061017f6107f3565b604051808215151515815260200191505060405180910390f35b3480156101a557600080fd5b506101ae6107ff565b6040518082815260200191505060405180910390f35b3480156101d057600080fd5b506101d9610809565b6040518082815260200191505060405180910390f35b3480156101fb57600080fd5b50610204610813565b005b34801561021257600080fd5b5061021b6108c2565b6040518082815260200191505060405180910390f35b34801561023d57600080fd5b506102466108cc565b005b34801561025457600080fd5b506102976004803603602081101561026b57600080fd5b81019080803573ffffffffffffffffffffffffffffffffffffffff1690602001909291905050506108fc565b604051808215151515815260200191505060405180910390f35b3480156102bd57600080fd5b506102c6610919565b604051808215151515815260200191505060405180910390f35b3480156102ec57600080fd5b506102f5610934565b6040518082815260200191505060405180910390f35b34801561031757600080fd5b5061032061093e565b005b34801561032e57600080fd5b506103376109be565b604051808215151515815260200191505060405180910390f35b34801561035d57600080fd5b506103666109d2565b604051808273ffffffffffffffffffffffffffffffffffffffff1673ffffffffffffffffffffffffffffffffffffffff16815260200191505060405180910390f35b3480156103b457600080fd5b506103bd6109fc565b604051808215151515815260200191505060405180910390f35b3480156103e357600080fd5b506103ec610a13565b005b3480156103fa57600080fd5b50610403610a1e565b005b34801561041157600080fd5b5061041a610af0565b005b34801561042857600080fd5b5061046b6004803603602081101561043f57600080fd5b81019080803573ffffffffffffffffffffffffffffffffffffffff169060200190929190505050610b20565b005b34801561047957600080fd5b50610482610b40565b005b34801561049057600080fd5b50610499610bf0565b604051808273ffffffffffffffffffffffffffffffffffffffff1673ffffffffffffffffffffffffffffffffffffffff16815260200191505060405180910390f35b3480156104e757600080fd5b506104f0610c19565b604051808215151515815260200191505060405180910390f35b34801561051657600080fd5b506105436004803603602081101561052d57600080fd5b8101908080359060200190929190505050610c70565b005b34801561055157600080fd5b5061055a610caf565b604051808215151515815260200191505060405180910390f35b34801561058057600080fd5b50610589610cc6565b6040518082815260200191505060405180910390f35b3480156105ab57600080fd5b5061060e600480360360408110156105c257600080fd5b81019080803573ffffffffffffffffffffffffffffffffffffffff169060200190929190803573ffffffffffffffffffffffffffffffffffffffff169060200190929190505050610cd0565b005b6106526004803603602081101561062657600080fd5b81019080803573ffffffffffffffffffffffffffffffffffffffff1690602001909291905050506106fc565b005b34801561066057600080fd5b506106a36004803603602081101561067757600080fd5b81019080803573ffffffffffffffffffffffffffffffffffffffff169060200190929190505050610fd0565b005b3480156106b157600080fd5b506106ba610fef565b604051808273ffffffffffffffffffffffffffffffffffffffff1673ffffffffffffffffffffffffffffffffffffffff16815260200191505060405180910390f35b600180600082825401925050819055506000600154905060003490506107228382611019565b600061072d82611056565b90506107448260055461107490919063ffffffff16565b6005819055506107548482611095565b8373ffffffffffffffffffffffffffffffffffffffff163373ffffffffffffffffffffffffffffffffffffffff167f6faf93231a456e552dbc9961f58d9713ee4f2e69d15f1975b050ef0911053a7b8484604051808381526020018281526020019250505060405180910390a36107cb84836110a3565b6107d361144d565b6107dd84836114b8565b5050600154811415156107ef57600080fd5b5050565b60006008544211905090565b6000600454905090565b6000600654905090565b61081c336108fc565b151561082757600080fd5b600b60009054906101000a900460ff16151561084257600080fd5b6000600b60006101000a81548160ff0219169083151502179055507f5db9ee0a495bf2e6ff9c91a7834c1ba4fdd244a5e8aa4e537bd38aeae4b073aa33604051808273ffffffffffffffffffffffffffffffffffffffff1673ffffffffffffffffffffffffffffffffffffffff16815260200191505060405180910390a1565b6000600554905090565b6108d4610c19565b15156108df57600080fd5b6001600b60016101000a81548160ff021916908315150217905550565b600061091282600a6114bc90919063ffffffff16565b9050919050565b6000600754421015801561092f57506008544211155b905090565b6000600854905090565b600960009054906101000a900460ff1615151561095a57600080fd5b6109626107f3565b151561096d57600080fd5b6001600960006101000a81548160ff021916908315150217905550610990611550565b7f9270cc390c096600a1c17c44345a1ba689fafd99d97487b10cfccf86cf73183660405160405180910390a1565b60006006546109cb6108c2565b1015905090565b6000600360009054906101000a900473ffffffffffffffffffffffffffffffffffffffff16905090565b6000600b60009054906101000a900460ff16905090565b610a1c33611734565b565b610a26610c19565b1515610a3157600080fd5b600073ffffffffffffffffffffffffffffffffffffffff166000809054906101000a900473ffffffffffffffffffffffffffffffffffffffff1673ffffffffffffffffffffffffffffffffffffffff167f8be0079c531659141344cd1fd0a4f28419497f9722a3daafe3b4186f6b6457e060405160405180910390a360008060006101000a81548173ffffffffffffffffffffffffffffffffffffffff021916908373ffffffffffffffffffffffffffffffffffffffff160217905550565b610af8610c19565b1515610b0357600080fd5b6000600b60016101000a81548160ff021916908315150217905550565b610b29336108fc565b1515610b3457600080fd5b610b3d8161178e565b50565b610b49336108fc565b1515610b5457600080fd5b600b60009054906101000a900460ff16151515610b7057600080fd5b6001600b60006101000a81548160ff0219169083151502179055507f62e78cea01bee320cd4e420270b5ea74000d11b0c9f74754ebdbfc544b05a25833604051808273ffffffffffffffffffffffffffffffffffffffff1673ffffffffffffffffffffffffffffffffffffffff16815260200191505060405180910390a1565b60008060009054906101000a900473ffffffffffffffffffffffffffffffffffffffff16905090565b60008060009054906101000a900473ffffffffffffffffffffffffffffffffffffffff1673ffffffffffffffffffffffffffffffffffffffff163373ffffffffffffffffffffffffffffffffffffffff1614905090565b610c78610919565b1515610c8357600080fd5b610c8b610c19565b1515610c9657600080fd5b428110151515610ca557600080fd5b8060088190555050565b6000600960009054906101000a900460ff16905090565b6000600754905090565b610cd8610c19565b1515610ce357600080fd5b600073ffffffffffffffffffffffffffffffffffffffff168273ffffffffffffffffffffffffffffffffffffffff1614158015610d4d5750600073ffffffffffffffffffffffffffffffffffffffff168173ffffffffffffffffffffffffffffffffffffffff1614155b8015610d8557508073ffffffffffffffffffffffffffffffffffffffff168273ffffffffffffffffffffffffffffffffffffffff1614155b1515610d9057600080fd5b600073ffffffffffffffffffffffffffffffffffffffff16600c60008373ffffffffffffffffffffffffffffffffffffffff1673ffffffffffffffffffffffffffffffffffffffff16815260200190815260200160002060009054906101000a900473ffffffffffffffffffffffffffffffffffffffff1673ffffffffffffffffffffffffffffffffffffffff16141515610eb9576040517f08c379a00000000000000000000000000000000000000000000000000000000081526004018080602001828103825260238152602001807f5468697320726566657265652068617320616c7265616479206265656e20616481526020017f646564000000000000000000000000000000000000000000000000000000000081525060400191505060405180910390fd5b6001600d60008473ffffffffffffffffffffffffffffffffffffffff1673ffffffffffffffffffffffffffffffffffffffff16815260200190815260200160002060008373ffffffffffffffffffffffffffffffffffffffff1673ffffffffffffffffffffffffffffffffffffffff16815260200190815260200160002060006101000a81548160ff02191690831515021790555081600c60008373ffffffffffffffffffffffffffffffffffffffff1673ffffffffffffffffffffffffffffffffffffffff16815260200190815260200160002060006101000a81548173ffffffffffffffffffffffffffffffffffffffff021916908373ffffffffffffffffffffffffffffffffffffffff1602179055505050565b610fd8610c19565b1515610fe357600080fd5b610fec816117e8565b50565b6000600260009054906101000a900473ffffffffffffffffffffffffffffffffffffffff16905090565b611021610919565b151561102c57600080fd5b600b60009054906101000a900460ff1615151561104857600080fd5b61105282826118e2565b5050565b600061106d6004548361190390919063ffffffff16565b9050919050565b600080828401905083811015151561108b57600080fd5b8091505092915050565b61109f8282611941565b5050565b600b60019054906101000a900460ff16801561114b5750600073ffffffffffffffffffffffffffffffffffffffff16600c60008473ffffffffffffffffffffffffffffffffffffffff1673ffffffffffffffffffffffffffffffffffffffff16815260200190815260200160002060009054906101000a900473ffffffffffffffffffffffffffffffffffffffff1673ffffffffffffffffffffffffffffffffffffffff1614155b1561144957600061116e601461116084611056565b61199290919063ffffffff16565b9050611178610fef565b73ffffffffffffffffffffffffffffffffffffffff166323b872dd600b60029054906101000a900473ffffffffffffffffffffffffffffffffffffffff1685846040518463ffffffff167c0100000000000000000000000000000000000000000000000000000000028152600401808473ffffffffffffffffffffffffffffffffffffffff1673ffffffffffffffffffffffffffffffffffffffff1681526020018373ffffffffffffffffffffffffffffffffffffffff1673ffffffffffffffffffffffffffffffffffffffff1681526020018281526020019350505050602060405180830381600087803b15801561127057600080fd5b505af1158015611284573d6000803e3d6000fd5b505050506040513d602081101561129a57600080fd5b8101908080519060200190929190505050506112b4610fef565b73ffffffffffffffffffffffffffffffffffffffff166323b872dd600b60029054906101000a900473ffffffffffffffffffffffffffffffffffffffff16600c60008773ffffffffffffffffffffffffffffffffffffffff1673ffffffffffffffffffffffffffffffffffffffff16815260200190815260200160002060009054906101000a900473ffffffffffffffffffffffffffffffffffffffff16846040518463ffffffff167c0100000000000000000000000000000000000000000000000000000000028152600401808473ffffffffffffffffffffffffffffffffffffffff1673ffffffffffffffffffffffffffffffffffffffff1681526020018373ffffffffffffffffffffffffffffffffffffffff1673ffffffffffffffffffffffffffffffffffffffff1681526020018281526020019350505050602060405180830381600087803b15801561140b57600080fd5b505af115801561141f573d6000803e3d6000fd5b505050506040513d602081101561143557600080fd5b810190808051906020019092919050505050505b5050565b600360009054906101000a900473ffffffffffffffffffffffffffffffffffffffff1673ffffffffffffffffffffffffffffffffffffffff166108fc349081150290604051600060405180830381858888f193505050501580156114b5573d6000803e3d6000fd5b50565b5050565b60008073ffffffffffffffffffffffffffffffffffffffff168273ffffffffffffffffffffffffffffffffffffffff16141515156114f957600080fd5b8260000160008373ffffffffffffffffffffffffffffffffffffffff1673ffffffffffffffffffffffffffffffffffffffff16815260200190815260200160002060009054906101000a900460ff16905092915050565b611558610fef565b73ffffffffffffffffffffffffffffffffffffffff1663a9059cbb600b60029054906101000a900473ffffffffffffffffffffffffffffffffffffffff1661159e610fef565b73ffffffffffffffffffffffffffffffffffffffff166370a08231306040518263ffffffff167c0100000000000000000000000000000000000000000000000000000000028152600401808273ffffffffffffffffffffffffffffffffffffffff1673ffffffffffffffffffffffffffffffffffffffff16815260200191505060206040518083038186803b15801561163657600080fd5b505afa15801561164a573d6000803e3d6000fd5b505050506040513d602081101561166057600080fd5b81019080805190602001909291905050506040518363ffffffff167c0100000000000000000000000000000000000000000000000000000000028152600401808373ffffffffffffffffffffffffffffffffffffffff1673ffffffffffffffffffffffffffffffffffffffff16815260200182815260200192505050602060405180830381600087803b1580156116f657600080fd5b505af115801561170a573d6000803e3d6000fd5b505050506040513d602081101561172057600080fd5b810190808051906020019092919050505050565b61174881600a6119bc90919063ffffffff16565b8073ffffffffffffffffffffffffffffffffffffffff167fcd265ebaf09df2871cc7bd4133404a235ba12eff2041bb89d9c714a2621c7c7e60405160405180910390a250565b6117a281600a611a6b90919063ffffffff16565b8073ffffffffffffffffffffffffffffffffffffffff167f6719d08c1888103bea251a4ed56406bd0c3e69723c8a1686e017e7bbe159b6f860405160405180910390a250565b600073ffffffffffffffffffffffffffffffffffffffff168173ffffffffffffffffffffffffffffffffffffffff161415151561182457600080fd5b8073ffffffffffffffffffffffffffffffffffffffff166000809054906101000a900473ffffffffffffffffffffffffffffffffffffffff1673ffffffffffffffffffffffffffffffffffffffff167f8be0079c531659141344cd1fd0a4f28419497f9722a3daafe3b4186f6b6457e060405160405180910390a3806000806101000a81548173ffffffffffffffffffffffffffffffffffffffff021916908373ffffffffffffffffffffffffffffffffffffffff16021790555050565b6118ea610919565b15156118f557600080fd5b6118ff8282611b1b565b5050565b600080831415611916576000905061193b565b6000828402905082848281151561192957fe5b0414151561193657600080fd5b809150505b92915050565b61198e8282600260009054906101000a900473ffffffffffffffffffffffffffffffffffffffff1673ffffffffffffffffffffffffffffffffffffffff16611b539092919063ffffffff16565b5050565b600080821115156119a257600080fd5b600082848115156119af57fe5b0490508091505092915050565b600073ffffffffffffffffffffffffffffffffffffffff168173ffffffffffffffffffffffffffffffffffffffff16141515156119f857600080fd5b611a0282826114bc565b1515611a0d57600080fd5b60008260000160008373ffffffffffffffffffffffffffffffffffffffff1673ffffffffffffffffffffffffffffffffffffffff16815260200190815260200160002060006101000a81548160ff0219169083151502179055505050565b600073ffffffffffffffffffffffffffffffffffffffff168173ffffffffffffffffffffffffffffffffffffffff1614151515611aa757600080fd5b611ab182826114bc565b151515611abd57600080fd5b60018260000160008373ffffffffffffffffffffffffffffffffffffffff1673ffffffffffffffffffffffffffffffffffffffff16815260200190815260200160002060006101000a81548160ff0219169083151502179055505050565b611b258282611c41565b600654611b4282611b346108c2565b61107490919063ffffffff16565b11151515611b4f57600080fd5b5050565b8273ffffffffffffffffffffffffffffffffffffffff1663a9059cbb83836040518363ffffffff167c0100000000000000000000000000000000000000000000000000000000028152600401808373ffffffffffffffffffffffffffffffffffffffff1673ffffffffffffffffffffffffffffffffffffffff16815260200182815260200192505050602060405180830381600087803b158015611bf657600080fd5b505af1158015611c0a573d6000803e3d6000fd5b505050506040513d6020811015611c2057600080fd5b81019080805190602001909291905050501515611c3c57600080fd5b505050565b600073ffffffffffffffffffffffffffffffffffffffff168273ffffffffffffffffffffffffffffffffffffffff1614151515611c7d57600080fd5b60008114151515611c8d57600080fd5b505056fea165627a7a72305820262b6c0d8ab274d2421b62ba2d3798c67e0f745321c7ed3f31538904bf25481f0029",
  "source": "/**\n    Copyright (c) 2019 Gocoworker\n\n    GCW ERC20 Token Sales Smart Contract    \n    Version 0.1\n\n    Permission is hereby granted, free of charge, to any person obtaining a copy\n    of this software and associated documentation files (the \"Software\"), to deal\n    in the Software without restriction, including without limitation the rights\n    to use, copy, modify, merge, publish, distribute, sublicense, and/or sell\n    copies of the Software, and to permit persons to whom the Software is\n    furnished to do so, subject to the following conditions:\n\n    The above copyright notice and this permission notice shall be included in\n    all copies or substantial portions of the Software.\n\n    THE SOFTWARE IS PROVIDED \"AS IS\", WITHOUT WARRANTY OF ANY KIND, EXPRESS OR\n    IMPLIED, INCLUDING BUT NOT LIMITED TO THE WARRANTIES OF MERCHANTABILITY,\n    FITNESS FOR A PARTICULAR PURPOSE AND NONINFRINGEMENT. IN NO EVENT SHALL THE\n    AUTHORS OR COPYRIGHT HOLDERS BE LIABLE FOR ANY CLAIM, DAMAGES OR OTHER\n    LIABILITY, WHETHER IN AN ACTION OF CONTRACT, TORT OR OTHERWISE, ARISING FROM,\n    OUT OF OR IN CONNECTION WITH THE SOFTWARE OR THE USE OR OTHER DEALINGS IN\n    THE SOFTWARE.\n\n    based on the contracts of OpenZeppelin:\n    https://github.com/OpenZeppelin/zeppelin-solidity/tree/master/contracts\n**/\npragma solidity ^0.5.0;\n\nimport 'openzeppelin-solidity/contracts/crowdsale/validation/CappedCrowdsale.sol';\nimport 'openzeppelin-solidity/contracts/token/ERC20/IERC20.sol';\nimport 'openzeppelin-solidity/contracts/ownership/Ownable.sol';\nimport 'openzeppelin-solidity/contracts/lifecycle/Pausable.sol';\n\n\n/**\n * @title TimedCrowdsale\n * @dev Crowdsale accepting contributions only within a time frame.\n */\ncontract TimedCrowdsale is Crowdsale {\n    using SafeMath for uint256;\n\n    uint256 private _openingTime;\n    uint256 internal _closingTime;\n\n    /**\n     * @dev Reverts if not in crowdsale time range.\n     */\n    modifier onlyWhileOpen {\n        require(isOpen());\n        _;\n    }\n\n    /**\n     * @dev Constructor, takes crowdsale opening and closing times.\n     * @param openingTime Crowdsale opening time\n     * @param closingTime Crowdsale closing time\n     */\n    constructor (uint256 openingTime, uint256 closingTime) public {\n        // solhint-disable-next-line not-rely-on-time\n        require(openingTime >= block.timestamp);\n        require(closingTime > openingTime);\n\n        _openingTime = openingTime;\n        _closingTime = closingTime;\n    }\n\n    /**\n     * @return the crowdsale opening time.\n     */\n    function openingTime() public view returns (uint256) {\n        return _openingTime;\n    }\n\n    /**\n     * @return the crowdsale closing time.\n     */\n    function closingTime() public view returns (uint256) {\n        return _closingTime;\n    }\n\n    /**\n     * @return true if the crowdsale is open, false otherwise.\n     */\n    function isOpen() public view returns (bool) {\n        // solhint-disable-next-line not-rely-on-time\n        return block.timestamp >= _openingTime && block.timestamp <= _closingTime;\n    }\n\n    /**\n     * @dev Checks whether the period in which the crowdsale is open has already elapsed.\n     * @return Whether crowdsale period has elapsed\n     */\n    function hasClosed() public view returns (bool) {\n        // solhint-disable-next-line not-rely-on-time\n        return block.timestamp > _closingTime;\n    }\n\n    /**\n     * @dev Extend parent behavior requiring to be within contributing period\n     * @param beneficiary Token purchaser\n     * @param weiAmount Amount of wei contributed\n     */\n    function _preValidatePurchase(address beneficiary, uint256 weiAmount) internal onlyWhileOpen view {\n        super._preValidatePurchase(beneficiary, weiAmount);\n    }\n}\n\n/**\n * @title FinalizableCrowdsale\n * @dev Extension of Crowdsale with a one-off finalization action, where one\n * can do extra work after finishing.\n */\ncontract FinalizableCrowdsale is TimedCrowdsale {\n    using SafeMath for uint256;\n\n    bool private _finalized;\n\n    event CrowdsaleFinalized();\n\n    constructor () internal {\n        _finalized = false;\n    }\n\n    /**\n     * @return true if the crowdsale is finalized, false otherwise.\n     */\n    function finalized() public view returns (bool) {\n        return _finalized;\n    }\n\n    /**\n     * @dev Must be called after crowdsale ends, to do some extra finalization\n     * work. Calls the contract's finalization function.\n     */\n    function finalize() public {\n        require(!_finalized);\n        require(hasClosed());\n\n        _finalized = true;\n\n        _finalization();\n        emit CrowdsaleFinalized();\n    }\n\n    /**\n     * @dev Can be overridden to add finalization logic. The overriding function\n     * should call super._finalization() to ensure the chain of finalization is\n     * executed entirely.\n     */\n    function _finalization() internal {\n        // solhint-disable-previous-line no-empty-blocks\n    }\n}\n\n\ncontract GCWPreSale is Ownable, CappedCrowdsale, FinalizableCrowdsale, Pausable {\n\n  bool private referralEnabled;\n  address private rewardPool;\n  mapping (address => address) refereeMap; //map a referee adress to its referrer\n  mapping (address => mapping(address => bool)) referralMap; //map a referrer adress to its referees\n\n  constructor(\n    uint256 openingTime,\n    uint256 closingTime,\n    address payable saleWallet,\n    address rewardPoolWallet,\n    IERC20 gcwtoken\n  )\n    public\n    Crowdsale(10, saleWallet, gcwtoken) //token price is 0.1 Ether, i.e 10 token unit (10^-18) by wei\n    CappedCrowdsale(210000 ether) //Max cap  : 210,000 Ether = 2,100,000 tokens\n    TimedCrowdsale(openingTime, closingTime)\n  {\n    rewardPool = rewardPoolWallet;\n    referralEnabled = true;\n  }\n\n\n  function changeClosingTime(uint256 closingTime) public onlyWhileOpen onlyOwner {\n      require(closingTime >= block.timestamp);\n      _closingTime = closingTime;\n  }\n\n  /**\n   * @dev Extend parent behavior requiring to be unpaused\n   * @param beneficiary Token purchaser\n   * @param weiAmount Amount of wei contributed\n   */\n  function _preValidatePurchase(\n    address beneficiary,\n    uint256 weiAmount\n  )\n    internal\n    view\n    onlyWhileOpen\n    whenNotPaused\n  {\n    super._preValidatePurchase(beneficiary, weiAmount);\n  }\n\n  function addReferee(address from_referrer, address to_referee) public onlyOwner{\n    require (from_referrer != address(0) && to_referee != address(0) && from_referrer != to_referee);\n    require(refereeMap[to_referee]==address(0), 'This referee has already been added' );\n\n    referralMap[from_referrer][to_referee] = true;\n    refereeMap[to_referee]=from_referrer;\n\n  }\n\n  /**\n   * @dev called by the owner to enable referral program\n   */\n  function enableReferral() public onlyOwner{\n    referralEnabled = true;\n  }\n\n  /**\n   * @dev called by the owner to disable referral program\n   */\n  function disableReferral() public onlyOwner{\n    referralEnabled = false;\n  }\n\n\n  /**\n   * @dev Overrided for referral program call\n   * @param beneficiary Address receiving the tokens\n   * @param weiAmount Value in wei involved in the purchase\n   */\n  function _updatePurchasingState(\n    address beneficiary,\n    uint256 weiAmount\n  )\n    internal\n  {\n     if(referralEnabled && refereeMap[beneficiary]!=address(0)) {\n      uint256 tokenReferallAmount = _getTokenAmount(weiAmount).div(20);\n      token().transferFrom(rewardPool, beneficiary, tokenReferallAmount);\n      token().transferFrom(rewardPool, refereeMap[beneficiary], tokenReferallAmount);     \n     }\n\n  }\n\n  /**\n   * @dev Overrided finalization to transfer all unsold token to the reward pool\n   */\n  function _finalization() internal {\n    token().transfer(rewardPool, token().balanceOf(address(this)));\n  }\n\n}\n",
  "sourcePath": "/home/sgriffon/gocoworker/contracts/GCWPreSale.sol",
  "compiler": {
    "name": "solc",
    "version": "0.5.0+commit.1d4f565a.Emscripten.clang"
  },
  "schemaVersion": "3.0.0",
  "updatedAt": "2019-03-18T10:25:57.516Z",
  "devdoc": {
    "methods": {
      "buyTokens(address)": {
        "details": "low level token purchase ***DO NOT OVERRIDE*** This function has a non-reentrancy guard, so it shouldn't be called by another `nonReentrant` function.",
        "params": {
          "beneficiary": "Recipient of the token purchase"
        }
      },
      "cap()": {
        "return": "the cap of the crowdsale."
      },
      "capReached()": {
        "details": "Checks whether the cap has been reached.",
        "return": "Whether the cap was reached"
      },
      "closingTime()": {
        "return": "the crowdsale closing time."
      },
      "disableReferral()": {
        "details": "called by the owner to disable referral program"
      },
      "enableReferral()": {
        "details": "called by the owner to enable referral program"
      },
      "finalize()": {
        "details": "Must be called after crowdsale ends, to do some extra finalization work. Calls the contract's finalization function."
      },
      "finalized()": {
        "return": "true if the crowdsale is finalized, false otherwise."
      },
      "hasClosed()": {
        "details": "Checks whether the period in which the crowdsale is open has already elapsed.",
        "return": "Whether crowdsale period has elapsed"
      },
      "isOpen()": {
        "return": "true if the crowdsale is open, false otherwise."
      },
      "isOwner()": {
        "return": "true if `msg.sender` is the owner of the contract."
      },
      "openingTime()": {
        "return": "the crowdsale opening time."
      },
      "owner()": {
        "return": "the address of the owner."
      },
      "pause()": {
        "details": "called by the owner to pause, triggers stopped state"
      },
      "paused()": {
        "return": "true if the contract is paused, false otherwise."
      },
      "rate()": {
        "return": "the number of token units a buyer gets per wei."
      },
      "renounceOwnership()": {
        "details": "Allows the current owner to relinquish control of the contract."
      },
      "token()": {
        "return": "the token being sold."
      },
      "transferOwnership(address)": {
        "details": "Allows the current owner to transfer control of the contract to a newOwner.",
        "params": {
          "newOwner": "The address to transfer ownership to."
        }
      },
      "unpause()": {
        "details": "called by the owner to unpause, returns to normal state"
      },
      "wallet()": {
        "return": "the address where funds are collected."
      },
      "weiRaised()": {
        "return": "the amount of wei raised."
      }
    }
  },
  "userdoc": {
    "methods": {
      "renounceOwnership()": {
        "notice": "Renouncing to ownership will leave the contract without an owner. It will not be possible to call the functions with the `onlyOwner` modifier anymore."
      }
    }
  }
}