{
  "contractName": "GCWSale",
  "abi": [
    {
      "constant": true,
      "inputs": [
        {
          "name": "",
          "type": "uint256"
        },
        {
          "name": "",
          "type": "address"
        }
      ],
      "name": "claimed",
      "outputs": [
        {
          "name": "",
          "type": "bool"
        }
      ],
      "payable": false,
      "stateMutability": "view",
      "type": "function",
      "signature": "0x120aa877"
    },
    {
      "constant": true,
      "inputs": [
        {
          "name": "",
          "type": "uint256"
        },
        {
          "name": "",
          "type": "address"
        }
      ],
      "name": "userBuys",
      "outputs": [
        {
          "name": "",
          "type": "uint256"
        }
      ],
      "payable": false,
      "stateMutability": "view",
      "type": "function",
      "signature": "0x3904e1bf"
    },
    {
      "constant": false,
      "inputs": [],
      "name": "unpause",
      "outputs": [],
      "payable": false,
      "stateMutability": "nonpayable",
      "type": "function",
      "signature": "0x3f4ba83a"
    },
    {
      "constant": true,
      "inputs": [
        {
          "name": "account",
          "type": "address"
        }
      ],
      "name": "isPauser",
      "outputs": [
        {
          "name": "",
          "type": "bool"
        }
      ],
      "payable": false,
      "stateMutability": "view",
      "type": "function",
      "signature": "0x46fbf68e"
    },
    {
      "constant": true,
      "inputs": [],
      "name": "_closingTime",
      "outputs": [
        {
          "name": "",
          "type": "uint256"
        }
      ],
      "payable": false,
      "stateMutability": "view",
      "type": "function",
      "signature": "0x4ff9448e"
    },
    {
      "constant": true,
      "inputs": [],
      "name": "paused",
      "outputs": [
        {
          "name": "",
          "type": "bool"
        }
      ],
      "payable": false,
      "stateMutability": "view",
      "type": "function",
      "signature": "0x5c975abb"
    },
    {
      "constant": true,
      "inputs": [],
      "name": "_tokenByPeriod",
      "outputs": [
        {
          "name": "",
          "type": "uint256"
        }
      ],
      "payable": false,
      "stateMutability": "view",
      "type": "function",
      "signature": "0x5d84e073"
    },
    {
      "constant": false,
      "inputs": [],
      "name": "renouncePauser",
      "outputs": [],
      "payable": false,
      "stateMutability": "nonpayable",
      "type": "function",
      "signature": "0x6ef8d66d"
    },
    {
      "constant": false,
      "inputs": [],
      "name": "renounceOwnership",
      "outputs": [],
      "payable": false,
      "stateMutability": "nonpayable",
      "type": "function",
      "signature": "0x715018a6"
    },
    {
      "constant": true,
      "inputs": [
        {
          "name": "",
          "type": "uint256"
        }
      ],
      "name": "dailyTotals",
      "outputs": [
        {
          "name": "",
          "type": "uint256"
        }
      ],
      "payable": false,
      "stateMutability": "view",
      "type": "function",
      "signature": "0x7d34f5ac"
    },
    {
      "constant": false,
      "inputs": [
        {
          "name": "account",
          "type": "address"
        }
      ],
      "name": "addPauser",
      "outputs": [],
      "payable": false,
      "stateMutability": "nonpayable",
      "type": "function",
      "signature": "0x82dc1ec4"
    },
    {
      "constant": false,
      "inputs": [],
      "name": "pause",
      "outputs": [],
      "payable": false,
      "stateMutability": "nonpayable",
      "type": "function",
      "signature": "0x8456cb59"
    },
    {
      "constant": true,
      "inputs": [],
      "name": "owner",
      "outputs": [
        {
          "name": "",
          "type": "address"
        }
      ],
      "payable": false,
      "stateMutability": "view",
      "type": "function",
      "signature": "0x8da5cb5b"
    },
    {
      "constant": true,
      "inputs": [],
      "name": "isOwner",
      "outputs": [
        {
          "name": "",
          "type": "bool"
        }
      ],
      "payable": false,
      "stateMutability": "view",
      "type": "function",
      "signature": "0x8f32d59b"
    },
    {
      "constant": false,
      "inputs": [
        {
          "name": "newOwner",
          "type": "address"
        }
      ],
      "name": "transferOwnership",
      "outputs": [],
      "payable": false,
      "stateMutability": "nonpayable",
      "type": "function",
      "signature": "0xf2fde38b"
    },
    {
      "constant": true,
      "inputs": [],
      "name": "_openingTime",
      "outputs": [
        {
          "name": "",
          "type": "uint256"
        }
      ],
      "payable": false,
      "stateMutability": "view",
      "type": "function",
      "signature": "0xf853edb4"
    },
    {
      "inputs": [
        {
          "name": "openingTime",
          "type": "uint256"
        },
        {
          "name": "wallet",
          "type": "address"
        },
        {
          "name": "rewardpool",
          "type": "address"
        },
        {
          "name": "numberOfPeriod",
          "type": "uint256"
        },
        {
          "name": "token",
          "type": "address"
        }
      ],
      "payable": false,
      "stateMutability": "nonpayable",
      "type": "constructor",
      "signature": "constructor"
    },
    {
      "payable": true,
      "stateMutability": "payable",
      "type": "fallback"
    },
    {
      "anonymous": false,
      "inputs": [
        {
          "indexed": false,
          "name": "period",
          "type": "uint256"
        },
        {
          "indexed": false,
          "name": "user",
          "type": "address"
        },
        {
          "indexed": false,
          "name": "amount",
          "type": "uint256"
        }
      ],
      "name": "LogBuy",
      "type": "event",
      "signature": "0xe054057d0479c6218d6ec87be73f88230a7e4e1f064cee6e7504e2c4cd9d6150"
    },
    {
      "anonymous": false,
      "inputs": [
        {
          "indexed": false,
          "name": "period",
          "type": "uint256"
        },
        {
          "indexed": false,
          "name": "user",
          "type": "address"
        },
        {
          "indexed": false,
          "name": "amount",
          "type": "uint256"
        }
      ],
      "name": "LogClaim",
      "type": "event",
      "signature": "0x51223fdc0a25891366fb358b4af9fe3c381b1566e287c61a29d01c8a173fe4f4"
    },
    {
      "anonymous": false,
      "inputs": [
        {
          "indexed": false,
          "name": "account",
          "type": "address"
        }
      ],
      "name": "Paused",
      "type": "event",
      "signature": "0x62e78cea01bee320cd4e420270b5ea74000d11b0c9f74754ebdbfc544b05a258"
    },
    {
      "anonymous": false,
      "inputs": [
        {
          "indexed": false,
          "name": "account",
          "type": "address"
        }
      ],
      "name": "Unpaused",
      "type": "event",
      "signature": "0x5db9ee0a495bf2e6ff9c91a7834c1ba4fdd244a5e8aa4e537bd38aeae4b073aa"
    },
    {
      "anonymous": false,
      "inputs": [
        {
          "indexed": true,
          "name": "account",
          "type": "address"
        }
      ],
      "name": "PauserAdded",
      "type": "event",
      "signature": "0x6719d08c1888103bea251a4ed56406bd0c3e69723c8a1686e017e7bbe159b6f8"
    },
    {
      "anonymous": false,
      "inputs": [
        {
          "indexed": true,
          "name": "account",
          "type": "address"
        }
      ],
      "name": "PauserRemoved",
      "type": "event",
      "signature": "0xcd265ebaf09df2871cc7bd4133404a235ba12eff2041bb89d9c714a2621c7c7e"
    },
    {
      "anonymous": false,
      "inputs": [
        {
          "indexed": true,
          "name": "previousOwner",
          "type": "address"
        },
        {
          "indexed": true,
          "name": "newOwner",
          "type": "address"
        }
      ],
      "name": "OwnershipTransferred",
      "type": "event",
      "signature": "0x8be0079c531659141344cd1fd0a4f28419497f9722a3daafe3b4186f6b6457e0"
    },
    {
      "constant": true,
      "inputs": [],
      "name": "token",
      "outputs": [
        {
          "name": "",
          "type": "address"
        }
      ],
      "payable": false,
      "stateMutability": "view",
      "type": "function",
      "signature": "0xfc0c546a"
    },
    {
      "constant": true,
      "inputs": [],
      "name": "tokenByPeriod",
      "outputs": [
        {
          "name": "",
          "type": "uint256"
        }
      ],
      "payable": false,
      "stateMutability": "view",
      "type": "function",
      "signature": "0x36bced39"
    },
    {
      "constant": true,
      "inputs": [],
      "name": "weiRaised",
      "outputs": [
        {
          "name": "",
          "type": "uint256"
        }
      ],
      "payable": false,
      "stateMutability": "view",
      "type": "function",
      "signature": "0x4042b66f"
    },
    {
      "constant": true,
      "inputs": [],
      "name": "tokenCap",
      "outputs": [
        {
          "name": "",
          "type": "uint256"
        }
      ],
      "payable": false,
      "stateMutability": "view",
      "type": "function",
      "signature": "0xdd54291b"
    },
    {
      "constant": true,
      "inputs": [],
      "name": "wallet",
      "outputs": [
        {
          "name": "",
          "type": "address"
        }
      ],
      "payable": false,
      "stateMutability": "view",
      "type": "function",
      "signature": "0x521eb273"
    },
    {
      "constant": true,
      "inputs": [],
      "name": "openingTime",
      "outputs": [
        {
          "name": "",
          "type": "uint256"
        }
      ],
      "payable": false,
      "stateMutability": "view",
      "type": "function",
      "signature": "0xb7a8807c"
    },
    {
      "constant": true,
      "inputs": [],
      "name": "closingTime",
      "outputs": [
        {
          "name": "",
          "type": "uint256"
        }
      ],
      "payable": false,
      "stateMutability": "view",
      "type": "function",
      "signature": "0x4b6753bc"
    },
    {
      "constant": true,
      "inputs": [],
      "name": "time",
      "outputs": [
        {
          "name": "",
          "type": "uint256"
        }
      ],
      "payable": false,
      "stateMutability": "view",
      "type": "function",
      "signature": "0x16ada547"
    },
    {
      "constant": true,
      "inputs": [],
      "name": "today",
      "outputs": [
        {
          "name": "",
          "type": "uint256"
        }
      ],
      "payable": false,
      "stateMutability": "view",
      "type": "function",
      "signature": "0xb74e452b"
    },
    {
      "constant": true,
      "inputs": [
        {
          "name": "period",
          "type": "uint256"
        }
      ],
      "name": "dailyTotal",
      "outputs": [
        {
          "name": "",
          "type": "uint256"
        }
      ],
      "payable": false,
      "stateMutability": "view",
      "type": "function",
      "signature": "0x731c13b2"
    },
    {
      "constant": true,
      "inputs": [
        {
          "name": "timestamp",
          "type": "uint256"
        }
      ],
      "name": "periodFor",
      "outputs": [
        {
          "name": "",
          "type": "uint256"
        }
      ],
      "payable": false,
      "stateMutability": "view",
      "type": "function",
      "signature": "0xe7fdb103"
    },
    {
      "constant": true,
      "inputs": [],
      "name": "isOpen",
      "outputs": [
        {
          "name": "",
          "type": "bool"
        }
      ],
      "payable": false,
      "stateMutability": "view",
      "type": "function",
      "signature": "0x47535d7b"
    },
    {
      "constant": true,
      "inputs": [],
      "name": "hasClosed",
      "outputs": [
        {
          "name": "",
          "type": "bool"
        }
      ],
      "payable": false,
      "stateMutability": "view",
      "type": "function",
      "signature": "0x1515bc2b"
    },
    {
      "constant": false,
      "inputs": [
        {
          "name": "beneficiary",
          "type": "address"
        }
      ],
      "name": "buyTokens",
      "outputs": [],
      "payable": true,
      "stateMutability": "payable",
      "type": "function",
      "signature": "0xec8ac4d8"
    },
    {
      "constant": false,
      "inputs": [
        {
          "name": "period",
          "type": "uint256"
        },
        {
          "name": "beneficiary",
          "type": "address"
        }
      ],
      "name": "claim",
      "outputs": [],
      "payable": false,
      "stateMutability": "nonpayable",
      "type": "function",
      "signature": "0xddd5e1b2"
    },
    {
      "constant": false,
      "inputs": [
        {
          "name": "period",
          "type": "uint256"
        },
        {
          "name": "beneficiaries",
          "type": "address[]"
        }
      ],
      "name": "batchClaim",
      "outputs": [],
      "payable": false,
      "stateMutability": "nonpayable",
      "type": "function",
      "signature": "0xe3aba75c"
    },
    {
      "constant": false,
      "inputs": [
        {
          "name": "beneficiary",
          "type": "address"
        }
      ],
      "name": "claimAll",
      "outputs": [],
      "payable": false,
      "stateMutability": "nonpayable",
      "type": "function",
      "signature": "0x77329f35"
    }
  ],
  "bytecode": "0x60806040523480156200001157600080fd5b5060405160a08062002109833981018060405260a08110156200003357600080fd5b810190808051906020019092919080519060200190929190805190602001909291908051906020019092919080519060200190929190505050336000806101000a81548173ffffffffffffffffffffffffffffffffffffffff021916908373ffffffffffffffffffffffffffffffffffffffff1602179055506000809054906101000a900473ffffffffffffffffffffffffffffffffffffffff1673ffffffffffffffffffffffffffffffffffffffff16600073ffffffffffffffffffffffffffffffffffffffff167f8be0079c531659141344cd1fd0a4f28419497f9722a3daafe3b4186f6b6457e060405160405180910390a36001808190555062000149336200043a640100000000026401000000009004565b6000600360006101000a81548160ff0219169083151502179055506000821115156200017457600080fd5b6000851115156200018457600080fd5b600073ffffffffffffffffffffffffffffffffffffffff168473ffffffffffffffffffffffffffffffffffffffff1614151515620001c157600080fd5b600073ffffffffffffffffffffffffffffffffffffffff168373ffffffffffffffffffffffffffffffffffffffff1614151515620001fe57600080fd5b600073ffffffffffffffffffffffffffffffffffffffff168173ffffffffffffffffffffffffffffffffffffffff16141515156200023b57600080fd5b83600560006101000a81548173ffffffffffffffffffffffffffffffffffffffff021916908373ffffffffffffffffffffffffffffffffffffffff16021790555082600660006101000a81548173ffffffffffffffffffffffffffffffffffffffff021916908373ffffffffffffffffffffffffffffffffffffffff16021790555080600360016101000a81548173ffffffffffffffffffffffffffffffffffffffff021916908373ffffffffffffffffffffffffffffffffffffffff1602179055508073ffffffffffffffffffffffffffffffffffffffff1663313ce5676040518163ffffffff167c010000000000000000000000000000000000000000000000000000000002815260040160206040518083038186803b1580156200036157600080fd5b505afa15801562000376573d6000803e3d6000fd5b505050506040513d60208110156200038d57600080fd5b810190808051906020019092919050505060ff16600a0a62a037a002600481905550620003d482600454620004a4640100000000026200175e179091906401000000009004565b600a8190555084600881905550620004296200040b6201275084620004d06401000000000262001788179091906401000000009004565b8662000512640100000000026200158a179091906401000000009004565b60098190555050505050506200068c565b6200045e816002620005346401000000000262001991179091906401000000009004565b8073ffffffffffffffffffffffffffffffffffffffff167f6719d08c1888103bea251a4ed56406bd0c3e69723c8a1686e017e7bbe159b6f860405160405180910390a250565b60008082111515620004b557600080fd5b60008284811515620004c357fe5b0490508091505092915050565b600080831415620004e557600090506200050c565b60008284029050828482811515620004f957fe5b041415156200050757600080fd5b809150505b92915050565b60008082840190508381101515156200052a57600080fd5b8091505092915050565b600073ffffffffffffffffffffffffffffffffffffffff168173ffffffffffffffffffffffffffffffffffffffff16141515156200057157600080fd5b6200058c8282620005f7640100000000026401000000009004565b1515156200059957600080fd5b60018260000160008373ffffffffffffffffffffffffffffffffffffffff1673ffffffffffffffffffffffffffffffffffffffff16815260200190815260200160002060006101000a81548160ff0219169083151502179055505050565b60008073ffffffffffffffffffffffffffffffffffffffff168273ffffffffffffffffffffffffffffffffffffffff16141515156200063557600080fd5b8260000160008373ffffffffffffffffffffffffffffffffffffffff1673ffffffffffffffffffffffffffffffffffffffff16815260200190815260200160002060009054906101000a900460ff16905092915050565b611a6d806200069c6000396000f3fe6080604052600436106101a1576000357c0100000000000000000000000000000000000000000000000000000000900463ffffffff168063120aa877146101ac5780631515bc2b1461021f57806316ada5471461024e57806336bced39146102795780633904e1bf146102a45780633f4ba83a146103135780634042b66f1461032a57806346fbf68e1461035557806347535d7b146103be5780634b6753bc146103ed5780634ff9448e14610418578063521eb273146104435780635c975abb1461049a5780635d84e073146104c95780636ef8d66d146104f4578063715018a61461050b578063731c13b21461052257806377329f35146105715780637d34f5ac146105c257806382dc1ec4146106115780638456cb59146106625780638da5cb5b146106795780638f32d59b146106d0578063b74e452b146106ff578063b7a8807c1461072a578063dd54291b14610755578063ddd5e1b214610780578063e3aba75c146107db578063e7fdb103146108aa578063ec8ac4d8146108f9578063f2fde38b1461093d578063f853edb41461098e578063fc0c546a146109b9575b6101aa33610a10565b005b3480156101b857600080fd5b50610205600480360360408110156101cf57600080fd5b8101908080359060200190929190803573ffffffffffffffffffffffffffffffffffffffff169060200190929190505050610c1e565b604051808215151515815260200191505060405180910390f35b34801561022b57600080fd5b50610234610c4d565b604051808215151515815260200191505060405180910390f35b34801561025a57600080fd5b50610263610c59565b6040518082815260200191505060405180910390f35b34801561028557600080fd5b5061028e610c61565b6040518082815260200191505060405180910390f35b3480156102b057600080fd5b506102fd600480360360408110156102c757600080fd5b8101908080359060200190929190803573ffffffffffffffffffffffffffffffffffffffff169060200190929190505050610c6b565b6040518082815260200191505060405180910390f35b34801561031f57600080fd5b50610328610c90565b005b34801561033657600080fd5b5061033f610d3f565b6040518082815260200191505060405180910390f35b34801561036157600080fd5b506103a46004803603602081101561037857600080fd5b81019080803573ffffffffffffffffffffffffffffffffffffffff169060200190929190505050610d49565b604051808215151515815260200191505060405180910390f35b3480156103ca57600080fd5b506103d3610d66565b604051808215151515815260200191505060405180910390f35b3480156103f957600080fd5b50610402610d81565b6040518082815260200191505060405180910390f35b34801561042457600080fd5b5061042d610d8b565b6040518082815260200191505060405180910390f35b34801561044f57600080fd5b50610458610d91565b604051808273ffffffffffffffffffffffffffffffffffffffff1673ffffffffffffffffffffffffffffffffffffffff16815260200191505060405180910390f35b3480156104a657600080fd5b506104af610dbb565b604051808215151515815260200191505060405180910390f35b3480156104d557600080fd5b506104de610dd2565b6040518082815260200191505060405180910390f35b34801561050057600080fd5b50610509610dd8565b005b34801561051757600080fd5b50610520610de3565b005b34801561052e57600080fd5b5061055b6004803603602081101561054557600080fd5b8101908080359060200190929190505050610eb5565b6040518082815260200191505060405180910390f35b34801561057d57600080fd5b506105c06004803603602081101561059457600080fd5b81019080803573ffffffffffffffffffffffffffffffffffffffff169060200190929190505050610ed2565b005b3480156105ce57600080fd5b506105fb600480360360208110156105e557600080fd5b8101908080359060200190929190505050610f02565b6040518082815260200191505060405180910390f35b34801561061d57600080fd5b506106606004803603602081101561063457600080fd5b81019080803573ffffffffffffffffffffffffffffffffffffffff169060200190929190505050610f1a565b005b34801561066e57600080fd5b50610677610f3a565b005b34801561068557600080fd5b5061068e610fea565b604051808273ffffffffffffffffffffffffffffffffffffffff1673ffffffffffffffffffffffffffffffffffffffff16815260200191505060405180910390f35b3480156106dc57600080fd5b506106e5611013565b604051808215151515815260200191505060405180910390f35b34801561070b57600080fd5b5061071461106a565b6040518082815260200191505060405180910390f35b34801561073657600080fd5b5061073f611081565b6040518082815260200191505060405180910390f35b34801561076157600080fd5b5061076a61108b565b6040518082815260200191505060405180910390f35b34801561078c57600080fd5b506107d9600480360360408110156107a357600080fd5b8101908080359060200190929190803573ffffffffffffffffffffffffffffffffffffffff169060200190929190505050611095565b005b3480156107e757600080fd5b506108a8600480360360408110156107fe57600080fd5b81019080803590602001909291908035906020019064010000000081111561082557600080fd5b82018360208201111561083757600080fd5b8035906020019184602083028401116401000000008311171561085957600080fd5b919080806020026020016040519081016040528093929190818152602001838360200280828437600081840152601f19601f820116905080830192505050505050509192919290505050611496565b005b3480156108b657600080fd5b506108e3600480360360208110156108cd57600080fd5b81019080803590602001909291905050506114f4565b6040518082815260200191505060405180910390f35b61093b6004803603602081101561090f57600080fd5b81019080803573ffffffffffffffffffffffffffffffffffffffff169060200190929190505050610a10565b005b34801561094957600080fd5b5061098c6004803603602081101561096057600080fd5b81019080803573ffffffffffffffffffffffffffffffffffffffff16906020019092919050505061153b565b005b34801561099a57600080fd5b506109a361155a565b6040518082815260200191505060405180910390f35b3480156109c557600080fd5b506109ce611560565b604051808273ffffffffffffffffffffffffffffffffffffffff1673ffffffffffffffffffffffffffffffffffffffff16815260200191505060405180910390f35b6001806000828254019250508190555060006001549050610a2f610d66565b1515610a3a57600080fd5b600360009054906101000a900460ff16151515610a5657600080fd5b67016345785d8a00003410151515610a6d57600080fd5b60003490506000610a7c61106a565b9050610ae182600c600084815260200190815260200160002060008773ffffffffffffffffffffffffffffffffffffffff1673ffffffffffffffffffffffffffffffffffffffff1681526020019081526020016000205461158a90919063ffffffff16565b600c600083815260200190815260200160002060008673ffffffffffffffffffffffffffffffffffffffff1673ffffffffffffffffffffffffffffffffffffffff16815260200190815260200160002081905550610b5b82600b60008481526020019081526020016000205461158a90919063ffffffff16565b600b600083815260200190815260200160002081905550610b878260075461158a90919063ffffffff16565b600781905550610b956115ab565b7fe054057d0479c6218d6ec87be73f88230a7e4e1f064cee6e7504e2c4cd9d6150818584604051808481526020018373ffffffffffffffffffffffffffffffffffffffff1673ffffffffffffffffffffffffffffffffffffffff168152602001828152602001935050505060405180910390a1505060015481141515610c1a57600080fd5b5050565b600d6020528160005260406000206020528060005260406000206000915091509054906101000a900460ff1681565b60006009544211905090565b600042905090565b6000600a54905090565b600c602052816000526040600020602052806000526040600020600091509150505481565b610c9933610d49565b1515610ca457600080fd5b600360009054906101000a900460ff161515610cbf57600080fd5b6000600360006101000a81548160ff0219169083151502179055507f5db9ee0a495bf2e6ff9c91a7834c1ba4fdd244a5e8aa4e537bd38aeae4b073aa33604051808273ffffffffffffffffffffffffffffffffffffffff1673ffffffffffffffffffffffffffffffffffffffff16815260200191505060405180910390a1565b6000600754905090565b6000610d5f82600261161690919063ffffffff16565b9050919050565b60006008544210158015610d7c57506009544211155b905090565b6000600954905090565b60095481565b6000600560009054906101000a900473ffffffffffffffffffffffffffffffffffffffff16905090565b6000600360009054906101000a900460ff16905090565b600a5481565b610de1336116aa565b565b610deb611013565b1515610df657600080fd5b600073ffffffffffffffffffffffffffffffffffffffff166000809054906101000a900473ffffffffffffffffffffffffffffffffffffffff1673ffffffffffffffffffffffffffffffffffffffff167f8be0079c531659141344cd1fd0a4f28419497f9722a3daafe3b4186f6b6457e060405160405180910390a360008060006101000a81548173ffffffffffffffffffffffffffffffffffffffff021916908373ffffffffffffffffffffffffffffffffffffffff160217905550565b6000600b6000838152602001908152602001600020549050919050565b60008090505b610ee061106a565b811015610efe57610ef18183611095565b8080600101915050610ed8565b5050565b600b6020528060005260406000206000915090505481565b610f2333610d49565b1515610f2e57600080fd5b610f3781611704565b50565b610f4333610d49565b1515610f4e57600080fd5b600360009054906101000a900460ff16151515610f6a57600080fd5b6001600360006101000a81548160ff0219169083151502179055507f62e78cea01bee320cd4e420270b5ea74000d11b0c9f74754ebdbfc544b05a25833604051808273ffffffffffffffffffffffffffffffffffffffff1673ffffffffffffffffffffffffffffffffffffffff16815260200191505060405180910390a1565b60008060009054906101000a900473ffffffffffffffffffffffffffffffffffffffff16905090565b60008060009054906101000a900473ffffffffffffffffffffffffffffffffffffffff1673ffffffffffffffffffffffffffffffffffffffff163373ffffffffffffffffffffffffffffffffffffffff1614905090565b600061107c611077610c59565b6114f4565b905090565b6000600854905090565b6000600454905090565b6001806000828254019250508190555060006001549050600360009054906101000a900460ff161515156110c857600080fd5b826110d161106a565b1115156110dd57600080fd5b600d600084815260200190815260200160002060008373ffffffffffffffffffffffffffffffffffffffff1673ffffffffffffffffffffffffffffffffffffffff16815260200190815260200160002060009054906101000a900460ff168061119657506000600c600085815260200190815260200160002060008473ffffffffffffffffffffffffffffffffffffffff1673ffffffffffffffffffffffffffffffffffffffff16815260200190815260200160002054145b806111b457506000600b600085815260200190815260200160002054145b156111be57611481565b600061124a6111eb600b600087815260200190815260200160002054600a5461175e90919063ffffffff16565b600c600087815260200190815260200160002060008673ffffffffffffffffffffffffffffffffffffffff1673ffffffffffffffffffffffffffffffffffffffff1681526020019081526020016000205461178890919063ffffffff16565b90506001600d600086815260200190815260200160002060008573ffffffffffffffffffffffffffffffffffffffff1673ffffffffffffffffffffffffffffffffffffffff16815260200190815260200160002060006101000a81548160ff021916908315150217905550600360019054906101000a900473ffffffffffffffffffffffffffffffffffffffff1673ffffffffffffffffffffffffffffffffffffffff166323b872dd600560009054906101000a900473ffffffffffffffffffffffffffffffffffffffff1685846040518463ffffffff167c0100000000000000000000000000000000000000000000000000000000028152600401808473ffffffffffffffffffffffffffffffffffffffff1673ffffffffffffffffffffffffffffffffffffffff1681526020018373ffffffffffffffffffffffffffffffffffffffff1673ffffffffffffffffffffffffffffffffffffffff1681526020018281526020019350505050602060405180830381600087803b1580156113d057600080fd5b505af11580156113e4573d6000803e3d6000fd5b505050506040513d60208110156113fa57600080fd5b8101908080519060200190929190505050507f51223fdc0a25891366fb358b4af9fe3c381b1566e287c61a29d01c8a173fe4f4848483604051808481526020018373ffffffffffffffffffffffffffffffffffffffff1673ffffffffffffffffffffffffffffffffffffffff168152602001828152602001935050505060405180910390a1505b6001548114151561149157600080fd5b505050565b600360009054906101000a900460ff161515156114b257600080fd5b60008090505b81518110156114ef576114e28383838151811015156114d357fe5b90602001906020020151611095565b80806001019150506114b8565b505050565b6000600854821061153157600161152b6201275061151d600854866117c690919063ffffffff16565b61175e90919063ffffffff16565b01611534565b60005b9050919050565b611543611013565b151561154e57600080fd5b611557816117e8565b50565b60085481565b6000600360019054906101000a900473ffffffffffffffffffffffffffffffffffffffff16905090565b60008082840190508381101515156115a157600080fd5b8091505092915050565b600560009054906101000a900473ffffffffffffffffffffffffffffffffffffffff1673ffffffffffffffffffffffffffffffffffffffff166108fc349081150290604051600060405180830381858888f19350505050158015611613573d6000803e3d6000fd5b50565b60008073ffffffffffffffffffffffffffffffffffffffff168273ffffffffffffffffffffffffffffffffffffffff161415151561165357600080fd5b8260000160008373ffffffffffffffffffffffffffffffffffffffff1673ffffffffffffffffffffffffffffffffffffffff16815260200190815260200160002060009054906101000a900460ff16905092915050565b6116be8160026118e290919063ffffffff16565b8073ffffffffffffffffffffffffffffffffffffffff167fcd265ebaf09df2871cc7bd4133404a235ba12eff2041bb89d9c714a2621c7c7e60405160405180910390a250565b61171881600261199190919063ffffffff16565b8073ffffffffffffffffffffffffffffffffffffffff167f6719d08c1888103bea251a4ed56406bd0c3e69723c8a1686e017e7bbe159b6f860405160405180910390a250565b6000808211151561176e57600080fd5b6000828481151561177b57fe5b0490508091505092915050565b60008083141561179b57600090506117c0565b600082840290508284828115156117ae57fe5b041415156117bb57600080fd5b809150505b92915050565b60008282111515156117d757600080fd5b600082840390508091505092915050565b600073ffffffffffffffffffffffffffffffffffffffff168173ffffffffffffffffffffffffffffffffffffffff161415151561182457600080fd5b8073ffffffffffffffffffffffffffffffffffffffff166000809054906101000a900473ffffffffffffffffffffffffffffffffffffffff1673ffffffffffffffffffffffffffffffffffffffff167f8be0079c531659141344cd1fd0a4f28419497f9722a3daafe3b4186f6b6457e060405160405180910390a3806000806101000a81548173ffffffffffffffffffffffffffffffffffffffff021916908373ffffffffffffffffffffffffffffffffffffffff16021790555050565b600073ffffffffffffffffffffffffffffffffffffffff168173ffffffffffffffffffffffffffffffffffffffff161415151561191e57600080fd5b6119288282611616565b151561193357600080fd5b60008260000160008373ffffffffffffffffffffffffffffffffffffffff1673ffffffffffffffffffffffffffffffffffffffff16815260200190815260200160002060006101000a81548160ff0219169083151502179055505050565b600073ffffffffffffffffffffffffffffffffffffffff168173ffffffffffffffffffffffffffffffffffffffff16141515156119cd57600080fd5b6119d78282611616565b1515156119e357600080fd5b60018260000160008373ffffffffffffffffffffffffffffffffffffffff1673ffffffffffffffffffffffffffffffffffffffff16815260200190815260200160002060006101000a81548160ff021916908315150217905550505056fea165627a7a72305820bfe969db8082db988da93ab506ff01f0013891b38c6fd92789146f6e602d4bc00029",
  "source": "/**\n    Copyright (c) 2019 Gocoworker\n\n    GCW ERC20 Token Sales Smart Contract    \n    Version 0.1\n\n    Permission is hereby granted, free of charge, to any person obtaining a copy\n    of this software and associated documentation files (the \"Software\"), to deal\n    in the Software without restriction, including without limitation the rights\n    to use, copy, modify, merge, publish, distribute, sublicense, and/or sell\n    copies of the Software, and to permit persons to whom the Software is\n    furnished to do so, subject to the following conditions:\n\n    The above copyright notice and this permission notice shall be included in\n    all copies or substantial portions of the Software.\n\n    THE SOFTWARE IS PROVIDED \"AS IS\", WITHOUT WARRANTY OF ANY KIND, EXPRESS OR\n    IMPLIED, INCLUDING BUT NOT LIMITED TO THE WARRANTIES OF MERCHANTABILITY,\n    FITNESS FOR A PARTICULAR PURPOSE AND NONINFRINGEMENT. IN NO EVENT SHALL THE\n    AUTHORS OR COPYRIGHT HOLDERS BE LIABLE FOR ANY CLAIM, DAMAGES OR OTHER\n    LIABILITY, WHETHER IN AN ACTION OF CONTRACT, TORT OR OTHERWISE, ARISING FROM,\n    OUT OF OR IN CONNECTION WITH THE SOFTWARE OR THE USE OR OTHER DEALINGS IN\n    THE SOFTWARE.\n\n    based on the contracts of OpenZeppelin:\n    https://github.com/OpenZeppelin/zeppelin-solidity/tree/master/contracts\n**/\npragma solidity ^0.5.0;\n\nimport 'openzeppelin-solidity/contracts/ownership/Ownable.sol';\nimport 'openzeppelin-solidity/contracts/token/ERC20/ERC20Detailed.sol';\nimport 'openzeppelin-solidity/contracts/math/SafeMath.sol';\nimport 'openzeppelin-solidity/contracts/token/ERC20/SafeERC20.sol';\nimport 'openzeppelin-solidity/contracts/lifecycle/Pausable.sol';\nimport 'openzeppelin-solidity/contracts/utils/ReentrancyGuard.sol';\n\ncontract GCWSale is Ownable, ReentrancyGuard, Pausable {\n\n    using SafeMath for uint256;\n    using SafeERC20 for ERC20Detailed;\n\n    // The token being sold\n    ERC20Detailed private _token;\n\n    //Total number of token to purchase\n    uint256 private _tokenCap;\n\n    // Address where funds are collected\n    address payable private _wallet;\n    \n    // Address of the reward pool \n    address private _rewardpool;\n\n    \n\n    // Amount of wei raised\n    uint256 private _weiRaised;\n\n    uint256 public  _openingTime;             // Time of first period opening  \n    uint256 public  _closingTime;             // Time of last period closing  \n\n    uint256 public  _tokenByPeriod;         // Tokens sold in each period\n\n    mapping (uint256 => uint256) public  dailyTotals;\n    mapping (uint256 => mapping (address => uint256)) public userBuys;\n    mapping (uint256 => mapping (address => bool)) public claimed;\n\n\n  \n    event LogBuy      (uint256 period, address user, uint256 amount);\n    event LogClaim    (uint256 period, address user, uint256 amount);\n\n     /**\n   * @dev Reverts if not in crowdsale time range.\n   */\n    modifier onlyWhileOpen {\n        require(isOpen());\n        _;\n    }\n\n    constructor(uint256 openingTime,\n        address payable wallet,\n        address rewardpool,        \n        uint256 numberOfPeriod,      \n        ERC20Detailed token\n    ) public {\n\n        \n        require(numberOfPeriod > 0);\n        require(openingTime>0);\n        require(wallet != address(0));\n        require(rewardpool != address(0));\n        require(address(token) != address(0));\n\n        _wallet = wallet;\n        _rewardpool = rewardpool;\n        _token = token;\n        \n        _tokenCap = 10500000 * (10 ** uint256(token.decimals()));\n\n        _tokenByPeriod = _tokenCap.div(numberOfPeriod);\n     \n        _openingTime = openingTime;\n        _closingTime = openingTime.add(numberOfPeriod.mul(21 hours));\n        \n    }\n\n     /**\n     * @dev fallback function ***DO NOT OVERRIDE***\n     * Note that other contracts will transfer fund with a base gas stipend\n     * of 2300, which is not enough to call buyTokens. Consider calling\n     * buyTokens directly when purchasing tokens from a contract.\n     */\n    function () external payable {\n        buyTokens(msg.sender);\n    }\n\n    /**\n     * @return the token being sold.\n     */\n    function token() public view returns (ERC20Detailed) {\n        return _token;\n    }\n\n      /**\n     * @return the number of token by period.\n     */\n    function tokenByPeriod() public view returns (uint256) {\n        return _tokenByPeriod;\n    }\n\n /**\n     * @return the amount of wei raised.\n     */\n    function weiRaised() public view returns (uint256) {\n        return _weiRaised;\n    }\n\n \n    /**\n     * @return the total number of token to purchase.\n     */\n    function tokenCap() public view returns (uint256) {\n        return _tokenCap;\n    }\n\n    /**\n     * @return the address where funds are collected.\n     */\n    function wallet() public view returns (address payable) {\n        return _wallet;\n    }\n\n    /**\n     * @return the crowdsale opening time.\n     */\n    function openingTime() public view returns (uint256) {\n        return _openingTime;\n    }\n\n    /**\n     * @return the crowdsale closing time.\n     */\n    function closingTime() public view returns (uint256) {\n        return _closingTime;\n    }\n\n    function time() public view returns (uint256) {\n        return block.timestamp;\n    }\n\n    function today() public view returns (uint256) {\n        return periodFor(time());\n    }\n\n    function dailyTotal(uint256 period) public view returns (uint256) {\n        return dailyTotals[period];\n    } \n\n   \n    // Each window is 21 hours long so that end-of-window rotates\n    // around the clock for all timezones.\n    function periodFor(uint256 timestamp) public view returns (uint256) {\n\n        return timestamp < _openingTime\n            ? 0\n            : timestamp.sub(_openingTime).div(21 hours) + 1;\n    }\n\n\n    /**\n    * @return true if the crowdsale is open, false otherwise.\n    */\n    function isOpen() public view returns (bool) {\n        // solium-disable-next-line security/no-block-members\n        return block.timestamp >= _openingTime && block.timestamp <= _closingTime;\n    }\n\n    /**\n    * @dev Checks whether the period in which the crowdsale is open has already elapsed.\n    * @return Whether crowdsale period has elapsed\n    */\n    function hasClosed() public view returns (bool) {\n        // solium-disable-next-line security/no-block-members\n        return block.timestamp > _closingTime;\n    }\n\n\n\n    function buyTokens(address beneficiary) public nonReentrant onlyWhileOpen whenNotPaused payable  {\n    \n        require(msg.value >= 0.1 ether);\n\n        uint256 weiAmount = msg.value;\n        uint256 period = today();\n    \n        userBuys[period][beneficiary] = userBuys[period][beneficiary].add(weiAmount);\n        dailyTotals[period] = dailyTotals[period].add(weiAmount);\n        \n        _weiRaised = _weiRaised.add(weiAmount);\n        \n        _forwardFunds();\n\n        emit LogBuy(period, beneficiary, weiAmount);\n\n    }\n  \n    function claim(uint256 period, address beneficiary) public nonReentrant whenNotPaused {\n        require(today() > period);\n        \n        if (claimed[period][beneficiary] || userBuys[period][beneficiary] == 0 || dailyTotals[period] == 0) {\n            return;\n        }\n\n        uint256 reward = userBuys[period][beneficiary].mul(_tokenByPeriod.div(dailyTotals[period]));\n        \n        claimed[period][beneficiary] = true;\n\n       _token.transferFrom(_wallet, beneficiary, reward);\n\n        emit LogClaim(period, beneficiary, reward);\n       \n    }\n\n    /**\n    * @dev This is an especial owner-only function to make massive tokens claim for a given period.\n    * @param period is the period to claim\n    * @param beneficiaries is an array of claiming addresses\n    */\n    function batchClaim(uint256 period, address[] memory beneficiaries) public whenNotPaused {\n        for (uint i = 0; i < beneficiaries.length; i++) {\n            claim(period,beneficiaries[i]);\n        }\n    }\n\n    function claimAll(address beneficiary) public {\n        for (uint256 i = 0; i < today(); i++) {\n            claim(i, beneficiary);\n        }\n    }\n\n\n    /**\n    * @dev Determines how ETH is stored/forwarded on purchases.\n    */\n    function _forwardFunds() internal {\n        _wallet.transfer(msg.value);\n    }\n\n}",
  "sourcePath": "/home/sgriffon/gocoworker/contracts/GCWSale.sol",
  "compiler": {
    "name": "solc",
    "version": "0.5.0+commit.1d4f565a.Emscripten.clang"
  },
  "schemaVersion": "3.0.0",
  "updatedAt": "2019-03-18T10:26:28.064Z",
  "devdoc": {
    "methods": {
      "batchClaim(uint256,address[])": {
        "details": "This is an especial owner-only function to make massive tokens claim for a given period.",
        "params": {
          "beneficiaries": "is an array of claiming addresses",
          "period": "is the period to claim"
        }
      },
      "closingTime()": {
        "return": "the crowdsale closing time."
      },
      "hasClosed()": {
        "details": "Checks whether the period in which the crowdsale is open has already elapsed.",
        "return": "Whether crowdsale period has elapsed"
      },
      "isOpen()": {
        "return": "true if the crowdsale is open, false otherwise."
      },
      "isOwner()": {
        "return": "true if `msg.sender` is the owner of the contract."
      },
      "openingTime()": {
        "return": "the crowdsale opening time."
      },
      "owner()": {
        "return": "the address of the owner."
      },
      "pause()": {
        "details": "called by the owner to pause, triggers stopped state"
      },
      "paused()": {
        "return": "true if the contract is paused, false otherwise."
      },
      "renounceOwnership()": {
        "details": "Allows the current owner to relinquish control of the contract."
      },
      "token()": {
        "return": "the token being sold."
      },
      "tokenByPeriod()": {
        "return": "the number of token by period."
      },
      "tokenCap()": {
        "return": "the total number of token to purchase."
      },
      "transferOwnership(address)": {
        "details": "Allows the current owner to transfer control of the contract to a newOwner.",
        "params": {
          "newOwner": "The address to transfer ownership to."
        }
      },
      "unpause()": {
        "details": "called by the owner to unpause, returns to normal state"
      },
      "wallet()": {
        "return": "the address where funds are collected."
      },
      "weiRaised()": {
        "return": "the amount of wei raised."
      }
    }
  },
  "userdoc": {
    "methods": {
      "renounceOwnership()": {
        "notice": "Renouncing to ownership will leave the contract without an owner. It will not be possible to call the functions with the `onlyOwner` modifier anymore."
      }
    }
  }
}